{
	"data": {
		"bytecode": {
			"linkReferences": {},
			"object": "60806040523480156200001157600080fd5b506040516200177438038062001774833981810160405281019062000037919062000345565b856000908162000048919062000660565b5084600190816200005a919062000660565b508360028190555082600360006101000a81548173ffffffffffffffffffffffffffffffffffffffff021916908373ffffffffffffffffffffffffffffffffffffffff16021790555081600460006101000a81548173ffffffffffffffffffffffffffffffffffffffff021916908373ffffffffffffffffffffffffffffffffffffffff1602179055506000600460146101000a81548160ff0219169083151502179055508060058190555050505050505062000747565b6000604051905090565b600080fd5b600080fd5b600080fd5b600080fd5b6000601f19601f8301169050919050565b7f4e487b7100000000000000000000000000000000000000000000000000000000600052604160045260246000fd5b6200017b8262000130565b810181811067ffffffffffffffff821117156200019d576200019c62000141565b5b80604052505050565b6000620001b262000112565b9050620001c0828262000170565b919050565b600067ffffffffffffffff821115620001e357620001e262000141565b5b620001ee8262000130565b9050602081019050919050565b60005b838110156200021b578082015181840152602081019050620001fe565b60008484015250505050565b60006200023e6200023884620001c5565b620001a6565b9050828152602081018484840111156200025d576200025c6200012b565b5b6200026a848285620001fb565b509392505050565b600082601f8301126200028a576200028962000126565b5b81516200029c84826020860162000227565b91505092915050565b6000819050919050565b620002ba81620002a5565b8114620002c657600080fd5b50565b600081519050620002da81620002af565b92915050565b600073ffffffffffffffffffffffffffffffffffffffff82169050919050565b60006200030d82620002e0565b9050919050565b6200031f8162000300565b81146200032b57600080fd5b50565b6000815190506200033f8162000314565b92915050565b60008060008060008060c087890312156200036557620003646200011c565b5b600087015167ffffffffffffffff81111562000386576200038562000121565b5b6200039489828a0162000272565b965050602087015167ffffffffffffffff811115620003b857620003b762000121565b5b620003c689828a0162000272565b9550506040620003d989828a01620002c9565b9450506060620003ec89828a016200032e565b9350506080620003ff89828a016200032e565b92505060a06200041289828a01620002c9565b9150509295509295509295565b600081519050919050565b7f4e487b7100000000000000000000000000000000000000000000000000000000600052602260045260246000fd5b600060028204905060018216806200047257607f821691505b6020821081036200048857620004876200042a565b5b50919050565b60008190508160005260206000209050919050565b60006020601f8301049050919050565b600082821b905092915050565b600060088302620004f27fffffffffffffffffffffffffffffffffffffffffffffffffffffffffffffffff82620004b3565b620004fe8683620004b3565b95508019841693508086168417925050509392505050565b6000819050919050565b6000620005416200053b6200053584620002a5565b62000516565b620002a5565b9050919050565b6000819050919050565b6200055d8362000520565b620005756200056c8262000548565b848454620004c0565b825550505050565b600090565b6200058c6200057d565b6200059981848462000552565b505050565b5b81811015620005c157620005b560008262000582565b6001810190506200059f565b5050565b601f8211156200061057620005da816200048e565b620005e584620004a3565b81016020851015620005f5578190505b6200060d6200060485620004a3565b8301826200059e565b50505b505050565b600082821c905092915050565b6000620006356000198460080262000615565b1980831691505092915050565b600062000650838362000622565b9150826002028217905092915050565b6200066b826200041f565b67ffffffffffffffff81111562000687576200068662000141565b5b62000693825462000459565b620006a0828285620005c5565b600060209050601f831160018114620006d85760008415620006c3578287015190505b620006cf858262000642565b8655506200073f565b601f198416620006e8866200048e565b60005b828110156200071257848901518255600182019150602085019450602081019050620006eb565b868310156200073257848901516200072e601f89168262000622565b8355505b6001600288020188555050505b505050505050565b61101d80620007576000396000f3fe6080604052600436106100f35760003560e01c8063607497241161008a578063bab82be411610059578063bab82be4146102fb578063c69dbb9914610324578063d615c82e1461034f578063f9a9ff9d1461036b576100f3565b80636074972414610265578063835c43291461029057806385e6d007146102b9578063882092a2146102d0576100f3565b806346f5f8ac116100c657806346f5f8ac146101a95780634ea5e89b146101e657806352935e761461020f5780635d1ca6311461023a576100f3565b806308905c10146100f85780631f9dd70b1461012357806330bc0f0c1461014e578063370158ea14610179575b600080fd5b34801561010457600080fd5b5061010d610396565b60405161011a9190610aa8565b60405180910390f35b34801561012f57600080fd5b506101386103a0565b6040516101459190610bb3565b60405180910390f35b34801561015a57600080fd5b5061016361042e565b6040516101709190610c65565b60405180910390f35b34801561018557600080fd5b5061018e6104c0565b6040516101a096959493929190610cb1565b60405180910390f35b3480156101b557600080fd5b506101d060048036038101906101cb9190610d51565b610652565b6040516101dd9190610aa8565b60405180910390f35b3480156101f257600080fd5b5061020d60048036038101906102089190610d51565b61069b565b005b34801561021b57600080fd5b506102246106e3565b6040516102319190610d7e565b60405180910390f35b34801561024657600080fd5b5061024f6106fa565b60405161025c9190610aa8565b60405180910390f35b34801561027157600080fd5b5061027a610704565b6040516102879190610d99565b60405180910390f35b34801561029c57600080fd5b506102b760048036038101906102b29190610de0565b61072e565b005b3480156102c557600080fd5b506102ce610804565b005b3480156102dc57600080fd5b506102e5610821565b6040516102f29190610aa8565b60405180910390f35b34801561030757600080fd5b50610322600480360381019061031d9190610de0565b61082b565b005b34801561033057600080fd5b50610339610935565b6040516103469190610d99565b60405180910390f35b61036960048036038101906103649190610e20565b61095f565b005b34801561037757600080fd5b506103806109fd565b60405161038d9190610c65565b60405180910390f35b6000600654905090565b6060600880548060200260200160405190810160405280929190818152602001828054801561042457602002820191906000526020600020905b8160009054906101000a900473ffffffffffffffffffffffffffffffffffffffff1673ffffffffffffffffffffffffffffffffffffffff16815260200190600101908083116103da575b5050505050905090565b60606000805461043d90610e7c565b80601f016020809104026020016040519081016040528092919081815260200182805461046990610e7c565b80156104b65780601f1061048b576101008083540402835291602001916104b6565b820191906000526020600020905b81548152906001019060200180831161049957829003601f168201915b5050505050905090565b60608060008060008060006001600254600360009054906101000a900473ffffffffffffffffffffffffffffffffffffffff16600460009054906101000a900473ffffffffffffffffffffffffffffffffffffffff16600460149054906101000a900460ff1685805461053290610e7c565b80601f016020809104026020016040519081016040528092919081815260200182805461055e90610e7c565b80156105ab5780601f10610580576101008083540402835291602001916105ab565b820191906000526020600020905b81548152906001019060200180831161058e57829003601f168201915b505050505095508480546105be90610e7c565b80601f01602080910402602001604051908101604052809291908181526020018280546105ea90610e7c565b80156106375780601f1061060c57610100808354040283529160200191610637565b820191906000526020600020905b81548152906001019060200180831161061a57829003601f168201915b50505050509450955095509550955095509550909192939495565b6000600760008373ffffffffffffffffffffffffffffffffffffffff1673ffffffffffffffffffffffffffffffffffffffff168152602001908152602001600020549050919050565b6000600760008373ffffffffffffffffffffffffffffffffffffffff1673ffffffffffffffffffffffffffffffffffffffff1681526020019081526020016000208190555050565b6000600460149054906101000a900460ff16905090565b6000600554905090565b6000600360009054906101000a900473ffffffffffffffffffffffffffffffffffffffff16905090565b6008829080600181540180825580915050600190039060005260206000200160009091909190916101000a81548173ffffffffffffffffffffffffffffffffffffffff021916908373ffffffffffffffffffffffffffffffffffffffff16021790555080600760008473ffffffffffffffffffffffffffffffffffffffff1673ffffffffffffffffffffffffffffffffffffffff16815260200190815260200160002060008282546107e09190610edc565b9250508190555080600660008282546107f99190610edc565b925050819055505050565b6001600460146101000a81548160ff021916908315150217905550565b6000600254905090565b600760008373ffffffffffffffffffffffffffffffffffffffff1673ffffffffffffffffffffffffffffffffffffffff168152602001908152602001600020548111156108ad576040517f08c379a00000000000000000000000000000000000000000000000000000000081526004016108a490610f5c565b60405180910390fd5b80600760008473ffffffffffffffffffffffffffffffffffffffff1673ffffffffffffffffffffffffffffffffffffffff16815260200190815260200160002060008282546108fc9190610f7c565b92505081905550600460149054906101000a900460ff166109315780600660008282546109299190610f7c565b925050819055505b5050565b6000600460009054906101000a900473ffffffffffffffffffffffffffffffffffffffff16905090565b600360009054906101000a900473ffffffffffffffffffffffffffffffffffffffff1673ffffffffffffffffffffffffffffffffffffffff1663986cc311620186a034600554600654866040518663ffffffff1660e01b81526004016109c793929190610fb0565b6000604051808303818589803b1580156109e057600080fd5b5088f11580156109f4573d6000803e3d6000fd5b50505050505050565b606060018054610a0c90610e7c565b80601f0160208091040260200160405190810160405280929190818152602001828054610a3890610e7c565b8015610a855780601f10610a5a57610100808354040283529160200191610a85565b820191906000526020600020905b815481529060010190602001808311610a6857829003601f168201915b5050505050905090565b6000819050919050565b610aa281610a8f565b82525050565b6000602082019050610abd6000830184610a99565b92915050565b600081519050919050565b600082825260208201905092915050565b6000819050602082019050919050565b600073ffffffffffffffffffffffffffffffffffffffff82169050919050565b6000610b1a82610aef565b9050919050565b610b2a81610b0f565b82525050565b6000610b3c8383610b21565b60208301905092915050565b6000602082019050919050565b6000610b6082610ac3565b610b6a8185610ace565b9350610b7583610adf565b8060005b83811015610ba6578151610b8d8882610b30565b9750610b9883610b48565b925050600181019050610b79565b5085935050505092915050565b60006020820190508181036000830152610bcd8184610b55565b905092915050565b600081519050919050565b600082825260208201905092915050565b60005b83811015610c0f578082015181840152602081019050610bf4565b60008484015250505050565b6000601f19601f8301169050919050565b6000610c3782610bd5565b610c418185610be0565b9350610c51818560208601610bf1565b610c5a81610c1b565b840191505092915050565b60006020820190508181036000830152610c7f8184610c2c565b905092915050565b610c9081610b0f565b82525050565b60008115159050919050565b610cab81610c96565b82525050565b600060c0820190508181036000830152610ccb8189610c2c565b90508181036020830152610cdf8188610c2c565b9050610cee6040830187610a99565b610cfb6060830186610c87565b610d086080830185610c87565b610d1560a0830184610ca2565b979650505050505050565b600080fd5b610d2e81610b0f565b8114610d3957600080fd5b50565b600081359050610d4b81610d25565b92915050565b600060208284031215610d6757610d66610d20565b5b6000610d7584828501610d3c565b91505092915050565b6000602082019050610d936000830184610ca2565b92915050565b6000602082019050610dae6000830184610c87565b92915050565b610dbd81610a8f565b8114610dc857600080fd5b50565b600081359050610dda81610db4565b92915050565b60008060408385031215610df757610df6610d20565b5b6000610e0585828601610d3c565b9250506020610e1685828601610dcb565b9150509250929050565b600060208284031215610e3657610e35610d20565b5b6000610e4484828501610dcb565b91505092915050565b7f4e487b7100000000000000000000000000000000000000000000000000000000600052602260045260246000fd5b60006002820490506001821680610e9457607f821691505b602082108103610ea757610ea6610e4d565b5b50919050565b7f4e487b7100000000000000000000000000000000000000000000000000000000600052601160045260246000fd5b6000610ee782610a8f565b9150610ef283610a8f565b9250828201905080821115610f0a57610f09610ead565b5b92915050565b7f4e6f2068617320656d697469646f2074616e746f7320766f746f730000000000600082015250565b6000610f46601b83610be0565b9150610f5182610f10565b602082019050919050565b60006020820190508181036000830152610f7581610f39565b9050919050565b6000610f8782610a8f565b9150610f9283610a8f565b9250828203905081811115610faa57610fa9610ead565b5b92915050565b6000606082019050610fc56000830186610a99565b610fd26020830185610a99565b610fdf6040830184610a99565b94935050505056fea2646970667358221220d172296cb5118f4ff96f3b37636304c224fb655c4eba7e4cd10a7a940c1e146a64736f6c63430008120033",
			"opcodes": "PUSH1 0x80 PUSH1 0x40 MSTORE CALLVALUE DUP1 ISZERO PUSH3 0x11 JUMPI PUSH1 0x0 DUP1 REVERT JUMPDEST POP PUSH1 0x40 MLOAD PUSH3 0x1774 CODESIZE SUB DUP1 PUSH3 0x1774 DUP4 CODECOPY DUP2 DUP2 ADD PUSH1 0x40 MSTORE DUP2 ADD SWAP1 PUSH3 0x37 SWAP2 SWAP1 PUSH3 0x345 JUMP JUMPDEST DUP6 PUSH1 0x0 SWAP1 DUP2 PUSH3 0x48 SWAP2 SWAP1 PUSH3 0x660 JUMP JUMPDEST POP DUP5 PUSH1 0x1 SWAP1 DUP2 PUSH3 0x5A SWAP2 SWAP1 PUSH3 0x660 JUMP JUMPDEST POP DUP4 PUSH1 0x2 DUP2 SWAP1 SSTORE POP DUP3 PUSH1 0x3 PUSH1 0x0 PUSH2 0x100 EXP DUP2 SLOAD DUP2 PUSH20 0xFFFFFFFFFFFFFFFFFFFFFFFFFFFFFFFFFFFFFFFF MUL NOT AND SWAP1 DUP4 PUSH20 0xFFFFFFFFFFFFFFFFFFFFFFFFFFFFFFFFFFFFFFFF AND MUL OR SWAP1 SSTORE POP DUP2 PUSH1 0x4 PUSH1 0x0 PUSH2 0x100 EXP DUP2 SLOAD DUP2 PUSH20 0xFFFFFFFFFFFFFFFFFFFFFFFFFFFFFFFFFFFFFFFF MUL NOT AND SWAP1 DUP4 PUSH20 0xFFFFFFFFFFFFFFFFFFFFFFFFFFFFFFFFFFFFFFFF AND MUL OR SWAP1 SSTORE POP PUSH1 0x0 PUSH1 0x4 PUSH1 0x14 PUSH2 0x100 EXP DUP2 SLOAD DUP2 PUSH1 0xFF MUL NOT AND SWAP1 DUP4 ISZERO ISZERO MUL OR SWAP1 SSTORE POP DUP1 PUSH1 0x5 DUP2 SWAP1 SSTORE POP POP POP POP POP POP POP PUSH3 0x747 JUMP JUMPDEST PUSH1 0x0 PUSH1 0x40 MLOAD SWAP1 POP SWAP1 JUMP JUMPDEST PUSH1 0x0 DUP1 REVERT JUMPDEST PUSH1 0x0 DUP1 REVERT JUMPDEST PUSH1 0x0 DUP1 REVERT JUMPDEST PUSH1 0x0 DUP1 REVERT JUMPDEST PUSH1 0x0 PUSH1 0x1F NOT PUSH1 0x1F DUP4 ADD AND SWAP1 POP SWAP2 SWAP1 POP JUMP JUMPDEST PUSH32 0x4E487B7100000000000000000000000000000000000000000000000000000000 PUSH1 0x0 MSTORE PUSH1 0x41 PUSH1 0x4 MSTORE PUSH1 0x24 PUSH1 0x0 REVERT JUMPDEST PUSH3 0x17B DUP3 PUSH3 0x130 JUMP JUMPDEST DUP2 ADD DUP2 DUP2 LT PUSH8 0xFFFFFFFFFFFFFFFF DUP3 GT OR ISZERO PUSH3 0x19D JUMPI PUSH3 0x19C PUSH3 0x141 JUMP JUMPDEST JUMPDEST DUP1 PUSH1 0x40 MSTORE POP POP POP JUMP JUMPDEST PUSH1 0x0 PUSH3 0x1B2 PUSH3 0x112 JUMP JUMPDEST SWAP1 POP PUSH3 0x1C0 DUP3 DUP3 PUSH3 0x170 JUMP JUMPDEST SWAP2 SWAP1 POP JUMP JUMPDEST PUSH1 0x0 PUSH8 0xFFFFFFFFFFFFFFFF DUP3 GT ISZERO PUSH3 0x1E3 JUMPI PUSH3 0x1E2 PUSH3 0x141 JUMP JUMPDEST JUMPDEST PUSH3 0x1EE DUP3 PUSH3 0x130 JUMP JUMPDEST SWAP1 POP PUSH1 0x20 DUP2 ADD SWAP1 POP SWAP2 SWAP1 POP JUMP JUMPDEST PUSH1 0x0 JUMPDEST DUP4 DUP2 LT ISZERO PUSH3 0x21B JUMPI DUP1 DUP3 ADD MLOAD DUP2 DUP5 ADD MSTORE PUSH1 0x20 DUP2 ADD SWAP1 POP PUSH3 0x1FE JUMP JUMPDEST PUSH1 0x0 DUP5 DUP5 ADD MSTORE POP POP POP POP JUMP JUMPDEST PUSH1 0x0 PUSH3 0x23E PUSH3 0x238 DUP5 PUSH3 0x1C5 JUMP JUMPDEST PUSH3 0x1A6 JUMP JUMPDEST SWAP1 POP DUP3 DUP2 MSTORE PUSH1 0x20 DUP2 ADD DUP5 DUP5 DUP5 ADD GT ISZERO PUSH3 0x25D JUMPI PUSH3 0x25C PUSH3 0x12B JUMP JUMPDEST JUMPDEST PUSH3 0x26A DUP5 DUP3 DUP6 PUSH3 0x1FB JUMP JUMPDEST POP SWAP4 SWAP3 POP POP POP JUMP JUMPDEST PUSH1 0x0 DUP3 PUSH1 0x1F DUP4 ADD SLT PUSH3 0x28A JUMPI PUSH3 0x289 PUSH3 0x126 JUMP JUMPDEST JUMPDEST DUP2 MLOAD PUSH3 0x29C DUP5 DUP3 PUSH1 0x20 DUP7 ADD PUSH3 0x227 JUMP JUMPDEST SWAP2 POP POP SWAP3 SWAP2 POP POP JUMP JUMPDEST PUSH1 0x0 DUP2 SWAP1 POP SWAP2 SWAP1 POP JUMP JUMPDEST PUSH3 0x2BA DUP2 PUSH3 0x2A5 JUMP JUMPDEST DUP2 EQ PUSH3 0x2C6 JUMPI PUSH1 0x0 DUP1 REVERT JUMPDEST POP JUMP JUMPDEST PUSH1 0x0 DUP2 MLOAD SWAP1 POP PUSH3 0x2DA DUP2 PUSH3 0x2AF JUMP JUMPDEST SWAP3 SWAP2 POP POP JUMP JUMPDEST PUSH1 0x0 PUSH20 0xFFFFFFFFFFFFFFFFFFFFFFFFFFFFFFFFFFFFFFFF DUP3 AND SWAP1 POP SWAP2 SWAP1 POP JUMP JUMPDEST PUSH1 0x0 PUSH3 0x30D DUP3 PUSH3 0x2E0 JUMP JUMPDEST SWAP1 POP SWAP2 SWAP1 POP JUMP JUMPDEST PUSH3 0x31F DUP2 PUSH3 0x300 JUMP JUMPDEST DUP2 EQ PUSH3 0x32B JUMPI PUSH1 0x0 DUP1 REVERT JUMPDEST POP JUMP JUMPDEST PUSH1 0x0 DUP2 MLOAD SWAP1 POP PUSH3 0x33F DUP2 PUSH3 0x314 JUMP JUMPDEST SWAP3 SWAP2 POP POP JUMP JUMPDEST PUSH1 0x0 DUP1 PUSH1 0x0 DUP1 PUSH1 0x0 DUP1 PUSH1 0xC0 DUP8 DUP10 SUB SLT ISZERO PUSH3 0x365 JUMPI PUSH3 0x364 PUSH3 0x11C JUMP JUMPDEST JUMPDEST PUSH1 0x0 DUP8 ADD MLOAD PUSH8 0xFFFFFFFFFFFFFFFF DUP2 GT ISZERO PUSH3 0x386 JUMPI PUSH3 0x385 PUSH3 0x121 JUMP JUMPDEST JUMPDEST PUSH3 0x394 DUP10 DUP3 DUP11 ADD PUSH3 0x272 JUMP JUMPDEST SWAP7 POP POP PUSH1 0x20 DUP8 ADD MLOAD PUSH8 0xFFFFFFFFFFFFFFFF DUP2 GT ISZERO PUSH3 0x3B8 JUMPI PUSH3 0x3B7 PUSH3 0x121 JUMP JUMPDEST JUMPDEST PUSH3 0x3C6 DUP10 DUP3 DUP11 ADD PUSH3 0x272 JUMP JUMPDEST SWAP6 POP POP PUSH1 0x40 PUSH3 0x3D9 DUP10 DUP3 DUP11 ADD PUSH3 0x2C9 JUMP JUMPDEST SWAP5 POP POP PUSH1 0x60 PUSH3 0x3EC DUP10 DUP3 DUP11 ADD PUSH3 0x32E JUMP JUMPDEST SWAP4 POP POP PUSH1 0x80 PUSH3 0x3FF DUP10 DUP3 DUP11 ADD PUSH3 0x32E JUMP JUMPDEST SWAP3 POP POP PUSH1 0xA0 PUSH3 0x412 DUP10 DUP3 DUP11 ADD PUSH3 0x2C9 JUMP JUMPDEST SWAP2 POP POP SWAP3 SWAP6 POP SWAP3 SWAP6 POP SWAP3 SWAP6 JUMP JUMPDEST PUSH1 0x0 DUP2 MLOAD SWAP1 POP SWAP2 SWAP1 POP JUMP JUMPDEST PUSH32 0x4E487B7100000000000000000000000000000000000000000000000000000000 PUSH1 0x0 MSTORE PUSH1 0x22 PUSH1 0x4 MSTORE PUSH1 0x24 PUSH1 0x0 REVERT JUMPDEST PUSH1 0x0 PUSH1 0x2 DUP3 DIV SWAP1 POP PUSH1 0x1 DUP3 AND DUP1 PUSH3 0x472 JUMPI PUSH1 0x7F DUP3 AND SWAP2 POP JUMPDEST PUSH1 0x20 DUP3 LT DUP2 SUB PUSH3 0x488 JUMPI PUSH3 0x487 PUSH3 0x42A JUMP JUMPDEST JUMPDEST POP SWAP2 SWAP1 POP JUMP JUMPDEST PUSH1 0x0 DUP2 SWAP1 POP DUP2 PUSH1 0x0 MSTORE PUSH1 0x20 PUSH1 0x0 KECCAK256 SWAP1 POP SWAP2 SWAP1 POP JUMP JUMPDEST PUSH1 0x0 PUSH1 0x20 PUSH1 0x1F DUP4 ADD DIV SWAP1 POP SWAP2 SWAP1 POP JUMP JUMPDEST PUSH1 0x0 DUP3 DUP3 SHL SWAP1 POP SWAP3 SWAP2 POP POP JUMP JUMPDEST PUSH1 0x0 PUSH1 0x8 DUP4 MUL PUSH3 0x4F2 PUSH32 0xFFFFFFFFFFFFFFFFFFFFFFFFFFFFFFFFFFFFFFFFFFFFFFFFFFFFFFFFFFFFFFFF DUP3 PUSH3 0x4B3 JUMP JUMPDEST PUSH3 0x4FE DUP7 DUP4 PUSH3 0x4B3 JUMP JUMPDEST SWAP6 POP DUP1 NOT DUP5 AND SWAP4 POP DUP1 DUP7 AND DUP5 OR SWAP3 POP POP POP SWAP4 SWAP3 POP POP POP JUMP JUMPDEST PUSH1 0x0 DUP2 SWAP1 POP SWAP2 SWAP1 POP JUMP JUMPDEST PUSH1 0x0 PUSH3 0x541 PUSH3 0x53B PUSH3 0x535 DUP5 PUSH3 0x2A5 JUMP JUMPDEST PUSH3 0x516 JUMP JUMPDEST PUSH3 0x2A5 JUMP JUMPDEST SWAP1 POP SWAP2 SWAP1 POP JUMP JUMPDEST PUSH1 0x0 DUP2 SWAP1 POP SWAP2 SWAP1 POP JUMP JUMPDEST PUSH3 0x55D DUP4 PUSH3 0x520 JUMP JUMPDEST PUSH3 0x575 PUSH3 0x56C DUP3 PUSH3 0x548 JUMP JUMPDEST DUP5 DUP5 SLOAD PUSH3 0x4C0 JUMP JUMPDEST DUP3 SSTORE POP POP POP POP JUMP JUMPDEST PUSH1 0x0 SWAP1 JUMP JUMPDEST PUSH3 0x58C PUSH3 0x57D JUMP JUMPDEST PUSH3 0x599 DUP2 DUP5 DUP5 PUSH3 0x552 JUMP JUMPDEST POP POP POP JUMP JUMPDEST JUMPDEST DUP2 DUP2 LT ISZERO PUSH3 0x5C1 JUMPI PUSH3 0x5B5 PUSH1 0x0 DUP3 PUSH3 0x582 JUMP JUMPDEST PUSH1 0x1 DUP2 ADD SWAP1 POP PUSH3 0x59F JUMP JUMPDEST POP POP JUMP JUMPDEST PUSH1 0x1F DUP3 GT ISZERO PUSH3 0x610 JUMPI PUSH3 0x5DA DUP2 PUSH3 0x48E JUMP JUMPDEST PUSH3 0x5E5 DUP5 PUSH3 0x4A3 JUMP JUMPDEST DUP2 ADD PUSH1 0x20 DUP6 LT ISZERO PUSH3 0x5F5 JUMPI DUP2 SWAP1 POP JUMPDEST PUSH3 0x60D PUSH3 0x604 DUP6 PUSH3 0x4A3 JUMP JUMPDEST DUP4 ADD DUP3 PUSH3 0x59E JUMP JUMPDEST POP POP JUMPDEST POP POP POP JUMP JUMPDEST PUSH1 0x0 DUP3 DUP3 SHR SWAP1 POP SWAP3 SWAP2 POP POP JUMP JUMPDEST PUSH1 0x0 PUSH3 0x635 PUSH1 0x0 NOT DUP5 PUSH1 0x8 MUL PUSH3 0x615 JUMP JUMPDEST NOT DUP1 DUP4 AND SWAP2 POP POP SWAP3 SWAP2 POP POP JUMP JUMPDEST PUSH1 0x0 PUSH3 0x650 DUP4 DUP4 PUSH3 0x622 JUMP JUMPDEST SWAP2 POP DUP3 PUSH1 0x2 MUL DUP3 OR SWAP1 POP SWAP3 SWAP2 POP POP JUMP JUMPDEST PUSH3 0x66B DUP3 PUSH3 0x41F JUMP JUMPDEST PUSH8 0xFFFFFFFFFFFFFFFF DUP2 GT ISZERO PUSH3 0x687 JUMPI PUSH3 0x686 PUSH3 0x141 JUMP JUMPDEST JUMPDEST PUSH3 0x693 DUP3 SLOAD PUSH3 0x459 JUMP JUMPDEST PUSH3 0x6A0 DUP3 DUP3 DUP6 PUSH3 0x5C5 JUMP JUMPDEST PUSH1 0x0 PUSH1 0x20 SWAP1 POP PUSH1 0x1F DUP4 GT PUSH1 0x1 DUP2 EQ PUSH3 0x6D8 JUMPI PUSH1 0x0 DUP5 ISZERO PUSH3 0x6C3 JUMPI DUP3 DUP8 ADD MLOAD SWAP1 POP JUMPDEST PUSH3 0x6CF DUP6 DUP3 PUSH3 0x642 JUMP JUMPDEST DUP7 SSTORE POP PUSH3 0x73F JUMP JUMPDEST PUSH1 0x1F NOT DUP5 AND PUSH3 0x6E8 DUP7 PUSH3 0x48E JUMP JUMPDEST PUSH1 0x0 JUMPDEST DUP3 DUP2 LT ISZERO PUSH3 0x712 JUMPI DUP5 DUP10 ADD MLOAD DUP3 SSTORE PUSH1 0x1 DUP3 ADD SWAP2 POP PUSH1 0x20 DUP6 ADD SWAP5 POP PUSH1 0x20 DUP2 ADD SWAP1 POP PUSH3 0x6EB JUMP JUMPDEST DUP7 DUP4 LT ISZERO PUSH3 0x732 JUMPI DUP5 DUP10 ADD MLOAD PUSH3 0x72E PUSH1 0x1F DUP10 AND DUP3 PUSH3 0x622 JUMP JUMPDEST DUP4 SSTORE POP JUMPDEST PUSH1 0x1 PUSH1 0x2 DUP9 MUL ADD DUP9 SSTORE POP POP POP JUMPDEST POP POP POP POP POP POP JUMP JUMPDEST PUSH2 0x101D DUP1 PUSH3 0x757 PUSH1 0x0 CODECOPY PUSH1 0x0 RETURN INVALID PUSH1 0x80 PUSH1 0x40 MSTORE PUSH1 0x4 CALLDATASIZE LT PUSH2 0xF3 JUMPI PUSH1 0x0 CALLDATALOAD PUSH1 0xE0 SHR DUP1 PUSH4 0x60749724 GT PUSH2 0x8A JUMPI DUP1 PUSH4 0xBAB82BE4 GT PUSH2 0x59 JUMPI DUP1 PUSH4 0xBAB82BE4 EQ PUSH2 0x2FB JUMPI DUP1 PUSH4 0xC69DBB99 EQ PUSH2 0x324 JUMPI DUP1 PUSH4 0xD615C82E EQ PUSH2 0x34F JUMPI DUP1 PUSH4 0xF9A9FF9D EQ PUSH2 0x36B JUMPI PUSH2 0xF3 JUMP JUMPDEST DUP1 PUSH4 0x60749724 EQ PUSH2 0x265 JUMPI DUP1 PUSH4 0x835C4329 EQ PUSH2 0x290 JUMPI DUP1 PUSH4 0x85E6D007 EQ PUSH2 0x2B9 JUMPI DUP1 PUSH4 0x882092A2 EQ PUSH2 0x2D0 JUMPI PUSH2 0xF3 JUMP JUMPDEST DUP1 PUSH4 0x46F5F8AC GT PUSH2 0xC6 JUMPI DUP1 PUSH4 0x46F5F8AC EQ PUSH2 0x1A9 JUMPI DUP1 PUSH4 0x4EA5E89B EQ PUSH2 0x1E6 JUMPI DUP1 PUSH4 0x52935E76 EQ PUSH2 0x20F JUMPI DUP1 PUSH4 0x5D1CA631 EQ PUSH2 0x23A JUMPI PUSH2 0xF3 JUMP JUMPDEST DUP1 PUSH4 0x8905C10 EQ PUSH2 0xF8 JUMPI DUP1 PUSH4 0x1F9DD70B EQ PUSH2 0x123 JUMPI DUP1 PUSH4 0x30BC0F0C EQ PUSH2 0x14E JUMPI DUP1 PUSH4 0x370158EA EQ PUSH2 0x179 JUMPI JUMPDEST PUSH1 0x0 DUP1 REVERT JUMPDEST CALLVALUE DUP1 ISZERO PUSH2 0x104 JUMPI PUSH1 0x0 DUP1 REVERT JUMPDEST POP PUSH2 0x10D PUSH2 0x396 JUMP JUMPDEST PUSH1 0x40 MLOAD PUSH2 0x11A SWAP2 SWAP1 PUSH2 0xAA8 JUMP JUMPDEST PUSH1 0x40 MLOAD DUP1 SWAP2 SUB SWAP1 RETURN JUMPDEST CALLVALUE DUP1 ISZERO PUSH2 0x12F JUMPI PUSH1 0x0 DUP1 REVERT JUMPDEST POP PUSH2 0x138 PUSH2 0x3A0 JUMP JUMPDEST PUSH1 0x40 MLOAD PUSH2 0x145 SWAP2 SWAP1 PUSH2 0xBB3 JUMP JUMPDEST PUSH1 0x40 MLOAD DUP1 SWAP2 SUB SWAP1 RETURN JUMPDEST CALLVALUE DUP1 ISZERO PUSH2 0x15A JUMPI PUSH1 0x0 DUP1 REVERT JUMPDEST POP PUSH2 0x163 PUSH2 0x42E JUMP JUMPDEST PUSH1 0x40 MLOAD PUSH2 0x170 SWAP2 SWAP1 PUSH2 0xC65 JUMP JUMPDEST PUSH1 0x40 MLOAD DUP1 SWAP2 SUB SWAP1 RETURN JUMPDEST CALLVALUE DUP1 ISZERO PUSH2 0x185 JUMPI PUSH1 0x0 DUP1 REVERT JUMPDEST POP PUSH2 0x18E PUSH2 0x4C0 JUMP JUMPDEST PUSH1 0x40 MLOAD PUSH2 0x1A0 SWAP7 SWAP6 SWAP5 SWAP4 SWAP3 SWAP2 SWAP1 PUSH2 0xCB1 JUMP JUMPDEST PUSH1 0x40 MLOAD DUP1 SWAP2 SUB SWAP1 RETURN JUMPDEST CALLVALUE DUP1 ISZERO PUSH2 0x1B5 JUMPI PUSH1 0x0 DUP1 REVERT JUMPDEST POP PUSH2 0x1D0 PUSH1 0x4 DUP1 CALLDATASIZE SUB DUP2 ADD SWAP1 PUSH2 0x1CB SWAP2 SWAP1 PUSH2 0xD51 JUMP JUMPDEST PUSH2 0x652 JUMP JUMPDEST PUSH1 0x40 MLOAD PUSH2 0x1DD SWAP2 SWAP1 PUSH2 0xAA8 JUMP JUMPDEST PUSH1 0x40 MLOAD DUP1 SWAP2 SUB SWAP1 RETURN JUMPDEST CALLVALUE DUP1 ISZERO PUSH2 0x1F2 JUMPI PUSH1 0x0 DUP1 REVERT JUMPDEST POP PUSH2 0x20D PUSH1 0x4 DUP1 CALLDATASIZE SUB DUP2 ADD SWAP1 PUSH2 0x208 SWAP2 SWAP1 PUSH2 0xD51 JUMP JUMPDEST PUSH2 0x69B JUMP JUMPDEST STOP JUMPDEST CALLVALUE DUP1 ISZERO PUSH2 0x21B JUMPI PUSH1 0x0 DUP1 REVERT JUMPDEST POP PUSH2 0x224 PUSH2 0x6E3 JUMP JUMPDEST PUSH1 0x40 MLOAD PUSH2 0x231 SWAP2 SWAP1 PUSH2 0xD7E JUMP JUMPDEST PUSH1 0x40 MLOAD DUP1 SWAP2 SUB SWAP1 RETURN JUMPDEST CALLVALUE DUP1 ISZERO PUSH2 0x246 JUMPI PUSH1 0x0 DUP1 REVERT JUMPDEST POP PUSH2 0x24F PUSH2 0x6FA JUMP JUMPDEST PUSH1 0x40 MLOAD PUSH2 0x25C SWAP2 SWAP1 PUSH2 0xAA8 JUMP JUMPDEST PUSH1 0x40 MLOAD DUP1 SWAP2 SUB SWAP1 RETURN JUMPDEST CALLVALUE DUP1 ISZERO PUSH2 0x271 JUMPI PUSH1 0x0 DUP1 REVERT JUMPDEST POP PUSH2 0x27A PUSH2 0x704 JUMP JUMPDEST PUSH1 0x40 MLOAD PUSH2 0x287 SWAP2 SWAP1 PUSH2 0xD99 JUMP JUMPDEST PUSH1 0x40 MLOAD DUP1 SWAP2 SUB SWAP1 RETURN JUMPDEST CALLVALUE DUP1 ISZERO PUSH2 0x29C JUMPI PUSH1 0x0 DUP1 REVERT JUMPDEST POP PUSH2 0x2B7 PUSH1 0x4 DUP1 CALLDATASIZE SUB DUP2 ADD SWAP1 PUSH2 0x2B2 SWAP2 SWAP1 PUSH2 0xDE0 JUMP JUMPDEST PUSH2 0x72E JUMP JUMPDEST STOP JUMPDEST CALLVALUE DUP1 ISZERO PUSH2 0x2C5 JUMPI PUSH1 0x0 DUP1 REVERT JUMPDEST POP PUSH2 0x2CE PUSH2 0x804 JUMP JUMPDEST STOP JUMPDEST CALLVALUE DUP1 ISZERO PUSH2 0x2DC JUMPI PUSH1 0x0 DUP1 REVERT JUMPDEST POP PUSH2 0x2E5 PUSH2 0x821 JUMP JUMPDEST PUSH1 0x40 MLOAD PUSH2 0x2F2 SWAP2 SWAP1 PUSH2 0xAA8 JUMP JUMPDEST PUSH1 0x40 MLOAD DUP1 SWAP2 SUB SWAP1 RETURN JUMPDEST CALLVALUE DUP1 ISZERO PUSH2 0x307 JUMPI PUSH1 0x0 DUP1 REVERT JUMPDEST POP PUSH2 0x322 PUSH1 0x4 DUP1 CALLDATASIZE SUB DUP2 ADD SWAP1 PUSH2 0x31D SWAP2 SWAP1 PUSH2 0xDE0 JUMP JUMPDEST PUSH2 0x82B JUMP JUMPDEST STOP JUMPDEST CALLVALUE DUP1 ISZERO PUSH2 0x330 JUMPI PUSH1 0x0 DUP1 REVERT JUMPDEST POP PUSH2 0x339 PUSH2 0x935 JUMP JUMPDEST PUSH1 0x40 MLOAD PUSH2 0x346 SWAP2 SWAP1 PUSH2 0xD99 JUMP JUMPDEST PUSH1 0x40 MLOAD DUP1 SWAP2 SUB SWAP1 RETURN JUMPDEST PUSH2 0x369 PUSH1 0x4 DUP1 CALLDATASIZE SUB DUP2 ADD SWAP1 PUSH2 0x364 SWAP2 SWAP1 PUSH2 0xE20 JUMP JUMPDEST PUSH2 0x95F JUMP JUMPDEST STOP JUMPDEST CALLVALUE DUP1 ISZERO PUSH2 0x377 JUMPI PUSH1 0x0 DUP1 REVERT JUMPDEST POP PUSH2 0x380 PUSH2 0x9FD JUMP JUMPDEST PUSH1 0x40 MLOAD PUSH2 0x38D SWAP2 SWAP1 PUSH2 0xC65 JUMP JUMPDEST PUSH1 0x40 MLOAD DUP1 SWAP2 SUB SWAP1 RETURN JUMPDEST PUSH1 0x0 PUSH1 0x6 SLOAD SWAP1 POP SWAP1 JUMP JUMPDEST PUSH1 0x60 PUSH1 0x8 DUP1 SLOAD DUP1 PUSH1 0x20 MUL PUSH1 0x20 ADD PUSH1 0x40 MLOAD SWAP1 DUP2 ADD PUSH1 0x40 MSTORE DUP1 SWAP3 SWAP2 SWAP1 DUP2 DUP2 MSTORE PUSH1 0x20 ADD DUP3 DUP1 SLOAD DUP1 ISZERO PUSH2 0x424 JUMPI PUSH1 0x20 MUL DUP3 ADD SWAP2 SWAP1 PUSH1 0x0 MSTORE PUSH1 0x20 PUSH1 0x0 KECCAK256 SWAP1 JUMPDEST DUP2 PUSH1 0x0 SWAP1 SLOAD SWAP1 PUSH2 0x100 EXP SWAP1 DIV PUSH20 0xFFFFFFFFFFFFFFFFFFFFFFFFFFFFFFFFFFFFFFFF AND PUSH20 0xFFFFFFFFFFFFFFFFFFFFFFFFFFFFFFFFFFFFFFFF AND DUP2 MSTORE PUSH1 0x20 ADD SWAP1 PUSH1 0x1 ADD SWAP1 DUP1 DUP4 GT PUSH2 0x3DA JUMPI JUMPDEST POP POP POP POP POP SWAP1 POP SWAP1 JUMP JUMPDEST PUSH1 0x60 PUSH1 0x0 DUP1 SLOAD PUSH2 0x43D SWAP1 PUSH2 0xE7C JUMP JUMPDEST DUP1 PUSH1 0x1F ADD PUSH1 0x20 DUP1 SWAP2 DIV MUL PUSH1 0x20 ADD PUSH1 0x40 MLOAD SWAP1 DUP2 ADD PUSH1 0x40 MSTORE DUP1 SWAP3 SWAP2 SWAP1 DUP2 DUP2 MSTORE PUSH1 0x20 ADD DUP3 DUP1 SLOAD PUSH2 0x469 SWAP1 PUSH2 0xE7C JUMP JUMPDEST DUP1 ISZERO PUSH2 0x4B6 JUMPI DUP1 PUSH1 0x1F LT PUSH2 0x48B JUMPI PUSH2 0x100 DUP1 DUP4 SLOAD DIV MUL DUP4 MSTORE SWAP2 PUSH1 0x20 ADD SWAP2 PUSH2 0x4B6 JUMP JUMPDEST DUP3 ADD SWAP2 SWAP1 PUSH1 0x0 MSTORE PUSH1 0x20 PUSH1 0x0 KECCAK256 SWAP1 JUMPDEST DUP2 SLOAD DUP2 MSTORE SWAP1 PUSH1 0x1 ADD SWAP1 PUSH1 0x20 ADD DUP1 DUP4 GT PUSH2 0x499 JUMPI DUP3 SWAP1 SUB PUSH1 0x1F AND DUP3 ADD SWAP2 JUMPDEST POP POP POP POP POP SWAP1 POP SWAP1 JUMP JUMPDEST PUSH1 0x60 DUP1 PUSH1 0x0 DUP1 PUSH1 0x0 DUP1 PUSH1 0x0 PUSH1 0x1 PUSH1 0x2 SLOAD PUSH1 0x3 PUSH1 0x0 SWAP1 SLOAD SWAP1 PUSH2 0x100 EXP SWAP1 DIV PUSH20 0xFFFFFFFFFFFFFFFFFFFFFFFFFFFFFFFFFFFFFFFF AND PUSH1 0x4 PUSH1 0x0 SWAP1 SLOAD SWAP1 PUSH2 0x100 EXP SWAP1 DIV PUSH20 0xFFFFFFFFFFFFFFFFFFFFFFFFFFFFFFFFFFFFFFFF AND PUSH1 0x4 PUSH1 0x14 SWAP1 SLOAD SWAP1 PUSH2 0x100 EXP SWAP1 DIV PUSH1 0xFF AND DUP6 DUP1 SLOAD PUSH2 0x532 SWAP1 PUSH2 0xE7C JUMP JUMPDEST DUP1 PUSH1 0x1F ADD PUSH1 0x20 DUP1 SWAP2 DIV MUL PUSH1 0x20 ADD PUSH1 0x40 MLOAD SWAP1 DUP2 ADD PUSH1 0x40 MSTORE DUP1 SWAP3 SWAP2 SWAP1 DUP2 DUP2 MSTORE PUSH1 0x20 ADD DUP3 DUP1 SLOAD PUSH2 0x55E SWAP1 PUSH2 0xE7C JUMP JUMPDEST DUP1 ISZERO PUSH2 0x5AB JUMPI DUP1 PUSH1 0x1F LT PUSH2 0x580 JUMPI PUSH2 0x100 DUP1 DUP4 SLOAD DIV MUL DUP4 MSTORE SWAP2 PUSH1 0x20 ADD SWAP2 PUSH2 0x5AB JUMP JUMPDEST DUP3 ADD SWAP2 SWAP1 PUSH1 0x0 MSTORE PUSH1 0x20 PUSH1 0x0 KECCAK256 SWAP1 JUMPDEST DUP2 SLOAD DUP2 MSTORE SWAP1 PUSH1 0x1 ADD SWAP1 PUSH1 0x20 ADD DUP1 DUP4 GT PUSH2 0x58E JUMPI DUP3 SWAP1 SUB PUSH1 0x1F AND DUP3 ADD SWAP2 JUMPDEST POP POP POP POP POP SWAP6 POP DUP5 DUP1 SLOAD PUSH2 0x5BE SWAP1 PUSH2 0xE7C JUMP JUMPDEST DUP1 PUSH1 0x1F ADD PUSH1 0x20 DUP1 SWAP2 DIV MUL PUSH1 0x20 ADD PUSH1 0x40 MLOAD SWAP1 DUP2 ADD PUSH1 0x40 MSTORE DUP1 SWAP3 SWAP2 SWAP1 DUP2 DUP2 MSTORE PUSH1 0x20 ADD DUP3 DUP1 SLOAD PUSH2 0x5EA SWAP1 PUSH2 0xE7C JUMP JUMPDEST DUP1 ISZERO PUSH2 0x637 JUMPI DUP1 PUSH1 0x1F LT PUSH2 0x60C JUMPI PUSH2 0x100 DUP1 DUP4 SLOAD DIV MUL DUP4 MSTORE SWAP2 PUSH1 0x20 ADD SWAP2 PUSH2 0x637 JUMP JUMPDEST DUP3 ADD SWAP2 SWAP1 PUSH1 0x0 MSTORE PUSH1 0x20 PUSH1 0x0 KECCAK256 SWAP1 JUMPDEST DUP2 SLOAD DUP2 MSTORE SWAP1 PUSH1 0x1 ADD SWAP1 PUSH1 0x20 ADD DUP1 DUP4 GT PUSH2 0x61A JUMPI DUP3 SWAP1 SUB PUSH1 0x1F AND DUP3 ADD SWAP2 JUMPDEST POP POP POP POP POP SWAP5 POP SWAP6 POP SWAP6 POP SWAP6 POP SWAP6 POP SWAP6 POP SWAP6 POP SWAP1 SWAP2 SWAP3 SWAP4 SWAP5 SWAP6 JUMP JUMPDEST PUSH1 0x0 PUSH1 0x7 PUSH1 0x0 DUP4 PUSH20 0xFFFFFFFFFFFFFFFFFFFFFFFFFFFFFFFFFFFFFFFF AND PUSH20 0xFFFFFFFFFFFFFFFFFFFFFFFFFFFFFFFFFFFFFFFF AND DUP2 MSTORE PUSH1 0x20 ADD SWAP1 DUP2 MSTORE PUSH1 0x20 ADD PUSH1 0x0 KECCAK256 SLOAD SWAP1 POP SWAP2 SWAP1 POP JUMP JUMPDEST PUSH1 0x0 PUSH1 0x7 PUSH1 0x0 DUP4 PUSH20 0xFFFFFFFFFFFFFFFFFFFFFFFFFFFFFFFFFFFFFFFF AND PUSH20 0xFFFFFFFFFFFFFFFFFFFFFFFFFFFFFFFFFFFFFFFF AND DUP2 MSTORE PUSH1 0x20 ADD SWAP1 DUP2 MSTORE PUSH1 0x20 ADD PUSH1 0x0 KECCAK256 DUP2 SWAP1 SSTORE POP POP JUMP JUMPDEST PUSH1 0x0 PUSH1 0x4 PUSH1 0x14 SWAP1 SLOAD SWAP1 PUSH2 0x100 EXP SWAP1 DIV PUSH1 0xFF AND SWAP1 POP SWAP1 JUMP JUMPDEST PUSH1 0x0 PUSH1 0x5 SLOAD SWAP1 POP SWAP1 JUMP JUMPDEST PUSH1 0x0 PUSH1 0x3 PUSH1 0x0 SWAP1 SLOAD SWAP1 PUSH2 0x100 EXP SWAP1 DIV PUSH20 0xFFFFFFFFFFFFFFFFFFFFFFFFFFFFFFFFFFFFFFFF AND SWAP1 POP SWAP1 JUMP JUMPDEST PUSH1 0x8 DUP3 SWAP1 DUP1 PUSH1 0x1 DUP2 SLOAD ADD DUP1 DUP3 SSTORE DUP1 SWAP2 POP POP PUSH1 0x1 SWAP1 SUB SWAP1 PUSH1 0x0 MSTORE PUSH1 0x20 PUSH1 0x0 KECCAK256 ADD PUSH1 0x0 SWAP1 SWAP2 SWAP1 SWAP2 SWAP1 SWAP2 PUSH2 0x100 EXP DUP2 SLOAD DUP2 PUSH20 0xFFFFFFFFFFFFFFFFFFFFFFFFFFFFFFFFFFFFFFFF MUL NOT AND SWAP1 DUP4 PUSH20 0xFFFFFFFFFFFFFFFFFFFFFFFFFFFFFFFFFFFFFFFF AND MUL OR SWAP1 SSTORE POP DUP1 PUSH1 0x7 PUSH1 0x0 DUP5 PUSH20 0xFFFFFFFFFFFFFFFFFFFFFFFFFFFFFFFFFFFFFFFF AND PUSH20 0xFFFFFFFFFFFFFFFFFFFFFFFFFFFFFFFFFFFFFFFF AND DUP2 MSTORE PUSH1 0x20 ADD SWAP1 DUP2 MSTORE PUSH1 0x20 ADD PUSH1 0x0 KECCAK256 PUSH1 0x0 DUP3 DUP3 SLOAD PUSH2 0x7E0 SWAP2 SWAP1 PUSH2 0xEDC JUMP JUMPDEST SWAP3 POP POP DUP2 SWAP1 SSTORE POP DUP1 PUSH1 0x6 PUSH1 0x0 DUP3 DUP3 SLOAD PUSH2 0x7F9 SWAP2 SWAP1 PUSH2 0xEDC JUMP JUMPDEST SWAP3 POP POP DUP2 SWAP1 SSTORE POP POP POP JUMP JUMPDEST PUSH1 0x1 PUSH1 0x4 PUSH1 0x14 PUSH2 0x100 EXP DUP2 SLOAD DUP2 PUSH1 0xFF MUL NOT AND SWAP1 DUP4 ISZERO ISZERO MUL OR SWAP1 SSTORE POP JUMP JUMPDEST PUSH1 0x0 PUSH1 0x2 SLOAD SWAP1 POP SWAP1 JUMP JUMPDEST PUSH1 0x7 PUSH1 0x0 DUP4 PUSH20 0xFFFFFFFFFFFFFFFFFFFFFFFFFFFFFFFFFFFFFFFF AND PUSH20 0xFFFFFFFFFFFFFFFFFFFFFFFFFFFFFFFFFFFFFFFF AND DUP2 MSTORE PUSH1 0x20 ADD SWAP1 DUP2 MSTORE PUSH1 0x20 ADD PUSH1 0x0 KECCAK256 SLOAD DUP2 GT ISZERO PUSH2 0x8AD JUMPI PUSH1 0x40 MLOAD PUSH32 0x8C379A000000000000000000000000000000000000000000000000000000000 DUP2 MSTORE PUSH1 0x4 ADD PUSH2 0x8A4 SWAP1 PUSH2 0xF5C JUMP JUMPDEST PUSH1 0x40 MLOAD DUP1 SWAP2 SUB SWAP1 REVERT JUMPDEST DUP1 PUSH1 0x7 PUSH1 0x0 DUP5 PUSH20 0xFFFFFFFFFFFFFFFFFFFFFFFFFFFFFFFFFFFFFFFF AND PUSH20 0xFFFFFFFFFFFFFFFFFFFFFFFFFFFFFFFFFFFFFFFF AND DUP2 MSTORE PUSH1 0x20 ADD SWAP1 DUP2 MSTORE PUSH1 0x20 ADD PUSH1 0x0 KECCAK256 PUSH1 0x0 DUP3 DUP3 SLOAD PUSH2 0x8FC SWAP2 SWAP1 PUSH2 0xF7C JUMP JUMPDEST SWAP3 POP POP DUP2 SWAP1 SSTORE POP PUSH1 0x4 PUSH1 0x14 SWAP1 SLOAD SWAP1 PUSH2 0x100 EXP SWAP1 DIV PUSH1 0xFF AND PUSH2 0x931 JUMPI DUP1 PUSH1 0x6 PUSH1 0x0 DUP3 DUP3 SLOAD PUSH2 0x929 SWAP2 SWAP1 PUSH2 0xF7C JUMP JUMPDEST SWAP3 POP POP DUP2 SWAP1 SSTORE POP JUMPDEST POP POP JUMP JUMPDEST PUSH1 0x0 PUSH1 0x4 PUSH1 0x0 SWAP1 SLOAD SWAP1 PUSH2 0x100 EXP SWAP1 DIV PUSH20 0xFFFFFFFFFFFFFFFFFFFFFFFFFFFFFFFFFFFFFFFF AND SWAP1 POP SWAP1 JUMP JUMPDEST PUSH1 0x3 PUSH1 0x0 SWAP1 SLOAD SWAP1 PUSH2 0x100 EXP SWAP1 DIV PUSH20 0xFFFFFFFFFFFFFFFFFFFFFFFFFFFFFFFFFFFFFFFF AND PUSH20 0xFFFFFFFFFFFFFFFFFFFFFFFFFFFFFFFFFFFFFFFF AND PUSH4 0x986CC311 PUSH3 0x186A0 CALLVALUE PUSH1 0x5 SLOAD PUSH1 0x6 SLOAD DUP7 PUSH1 0x40 MLOAD DUP7 PUSH4 0xFFFFFFFF AND PUSH1 0xE0 SHL DUP2 MSTORE PUSH1 0x4 ADD PUSH2 0x9C7 SWAP4 SWAP3 SWAP2 SWAP1 PUSH2 0xFB0 JUMP JUMPDEST PUSH1 0x0 PUSH1 0x40 MLOAD DUP1 DUP4 SUB DUP2 DUP6 DUP10 DUP1 EXTCODESIZE ISZERO DUP1 ISZERO PUSH2 0x9E0 JUMPI PUSH1 0x0 DUP1 REVERT JUMPDEST POP DUP9 CALL ISZERO DUP1 ISZERO PUSH2 0x9F4 JUMPI RETURNDATASIZE PUSH1 0x0 DUP1 RETURNDATACOPY RETURNDATASIZE PUSH1 0x0 REVERT JUMPDEST POP POP POP POP POP POP POP JUMP JUMPDEST PUSH1 0x60 PUSH1 0x1 DUP1 SLOAD PUSH2 0xA0C SWAP1 PUSH2 0xE7C JUMP JUMPDEST DUP1 PUSH1 0x1F ADD PUSH1 0x20 DUP1 SWAP2 DIV MUL PUSH1 0x20 ADD PUSH1 0x40 MLOAD SWAP1 DUP2 ADD PUSH1 0x40 MSTORE DUP1 SWAP3 SWAP2 SWAP1 DUP2 DUP2 MSTORE PUSH1 0x20 ADD DUP3 DUP1 SLOAD PUSH2 0xA38 SWAP1 PUSH2 0xE7C JUMP JUMPDEST DUP1 ISZERO PUSH2 0xA85 JUMPI DUP1 PUSH1 0x1F LT PUSH2 0xA5A JUMPI PUSH2 0x100 DUP1 DUP4 SLOAD DIV MUL DUP4 MSTORE SWAP2 PUSH1 0x20 ADD SWAP2 PUSH2 0xA85 JUMP JUMPDEST DUP3 ADD SWAP2 SWAP1 PUSH1 0x0 MSTORE PUSH1 0x20 PUSH1 0x0 KECCAK256 SWAP1 JUMPDEST DUP2 SLOAD DUP2 MSTORE SWAP1 PUSH1 0x1 ADD SWAP1 PUSH1 0x20 ADD DUP1 DUP4 GT PUSH2 0xA68 JUMPI DUP3 SWAP1 SUB PUSH1 0x1F AND DUP3 ADD SWAP2 JUMPDEST POP POP POP POP POP SWAP1 POP SWAP1 JUMP JUMPDEST PUSH1 0x0 DUP2 SWAP1 POP SWAP2 SWAP1 POP JUMP JUMPDEST PUSH2 0xAA2 DUP2 PUSH2 0xA8F JUMP JUMPDEST DUP3 MSTORE POP POP JUMP JUMPDEST PUSH1 0x0 PUSH1 0x20 DUP3 ADD SWAP1 POP PUSH2 0xABD PUSH1 0x0 DUP4 ADD DUP5 PUSH2 0xA99 JUMP JUMPDEST SWAP3 SWAP2 POP POP JUMP JUMPDEST PUSH1 0x0 DUP2 MLOAD SWAP1 POP SWAP2 SWAP1 POP JUMP JUMPDEST PUSH1 0x0 DUP3 DUP3 MSTORE PUSH1 0x20 DUP3 ADD SWAP1 POP SWAP3 SWAP2 POP POP JUMP JUMPDEST PUSH1 0x0 DUP2 SWAP1 POP PUSH1 0x20 DUP3 ADD SWAP1 POP SWAP2 SWAP1 POP JUMP JUMPDEST PUSH1 0x0 PUSH20 0xFFFFFFFFFFFFFFFFFFFFFFFFFFFFFFFFFFFFFFFF DUP3 AND SWAP1 POP SWAP2 SWAP1 POP JUMP JUMPDEST PUSH1 0x0 PUSH2 0xB1A DUP3 PUSH2 0xAEF JUMP JUMPDEST SWAP1 POP SWAP2 SWAP1 POP JUMP JUMPDEST PUSH2 0xB2A DUP2 PUSH2 0xB0F JUMP JUMPDEST DUP3 MSTORE POP POP JUMP JUMPDEST PUSH1 0x0 PUSH2 0xB3C DUP4 DUP4 PUSH2 0xB21 JUMP JUMPDEST PUSH1 0x20 DUP4 ADD SWAP1 POP SWAP3 SWAP2 POP POP JUMP JUMPDEST PUSH1 0x0 PUSH1 0x20 DUP3 ADD SWAP1 POP SWAP2 SWAP1 POP JUMP JUMPDEST PUSH1 0x0 PUSH2 0xB60 DUP3 PUSH2 0xAC3 JUMP JUMPDEST PUSH2 0xB6A DUP2 DUP6 PUSH2 0xACE JUMP JUMPDEST SWAP4 POP PUSH2 0xB75 DUP4 PUSH2 0xADF JUMP JUMPDEST DUP1 PUSH1 0x0 JUMPDEST DUP4 DUP2 LT ISZERO PUSH2 0xBA6 JUMPI DUP2 MLOAD PUSH2 0xB8D DUP9 DUP3 PUSH2 0xB30 JUMP JUMPDEST SWAP8 POP PUSH2 0xB98 DUP4 PUSH2 0xB48 JUMP JUMPDEST SWAP3 POP POP PUSH1 0x1 DUP2 ADD SWAP1 POP PUSH2 0xB79 JUMP JUMPDEST POP DUP6 SWAP4 POP POP POP POP SWAP3 SWAP2 POP POP JUMP JUMPDEST PUSH1 0x0 PUSH1 0x20 DUP3 ADD SWAP1 POP DUP2 DUP2 SUB PUSH1 0x0 DUP4 ADD MSTORE PUSH2 0xBCD DUP2 DUP5 PUSH2 0xB55 JUMP JUMPDEST SWAP1 POP SWAP3 SWAP2 POP POP JUMP JUMPDEST PUSH1 0x0 DUP2 MLOAD SWAP1 POP SWAP2 SWAP1 POP JUMP JUMPDEST PUSH1 0x0 DUP3 DUP3 MSTORE PUSH1 0x20 DUP3 ADD SWAP1 POP SWAP3 SWAP2 POP POP JUMP JUMPDEST PUSH1 0x0 JUMPDEST DUP4 DUP2 LT ISZERO PUSH2 0xC0F JUMPI DUP1 DUP3 ADD MLOAD DUP2 DUP5 ADD MSTORE PUSH1 0x20 DUP2 ADD SWAP1 POP PUSH2 0xBF4 JUMP JUMPDEST PUSH1 0x0 DUP5 DUP5 ADD MSTORE POP POP POP POP JUMP JUMPDEST PUSH1 0x0 PUSH1 0x1F NOT PUSH1 0x1F DUP4 ADD AND SWAP1 POP SWAP2 SWAP1 POP JUMP JUMPDEST PUSH1 0x0 PUSH2 0xC37 DUP3 PUSH2 0xBD5 JUMP JUMPDEST PUSH2 0xC41 DUP2 DUP6 PUSH2 0xBE0 JUMP JUMPDEST SWAP4 POP PUSH2 0xC51 DUP2 DUP6 PUSH1 0x20 DUP7 ADD PUSH2 0xBF1 JUMP JUMPDEST PUSH2 0xC5A DUP2 PUSH2 0xC1B JUMP JUMPDEST DUP5 ADD SWAP2 POP POP SWAP3 SWAP2 POP POP JUMP JUMPDEST PUSH1 0x0 PUSH1 0x20 DUP3 ADD SWAP1 POP DUP2 DUP2 SUB PUSH1 0x0 DUP4 ADD MSTORE PUSH2 0xC7F DUP2 DUP5 PUSH2 0xC2C JUMP JUMPDEST SWAP1 POP SWAP3 SWAP2 POP POP JUMP JUMPDEST PUSH2 0xC90 DUP2 PUSH2 0xB0F JUMP JUMPDEST DUP3 MSTORE POP POP JUMP JUMPDEST PUSH1 0x0 DUP2 ISZERO ISZERO SWAP1 POP SWAP2 SWAP1 POP JUMP JUMPDEST PUSH2 0xCAB DUP2 PUSH2 0xC96 JUMP JUMPDEST DUP3 MSTORE POP POP JUMP JUMPDEST PUSH1 0x0 PUSH1 0xC0 DUP3 ADD SWAP1 POP DUP2 DUP2 SUB PUSH1 0x0 DUP4 ADD MSTORE PUSH2 0xCCB DUP2 DUP10 PUSH2 0xC2C JUMP JUMPDEST SWAP1 POP DUP2 DUP2 SUB PUSH1 0x20 DUP4 ADD MSTORE PUSH2 0xCDF DUP2 DUP9 PUSH2 0xC2C JUMP JUMPDEST SWAP1 POP PUSH2 0xCEE PUSH1 0x40 DUP4 ADD DUP8 PUSH2 0xA99 JUMP JUMPDEST PUSH2 0xCFB PUSH1 0x60 DUP4 ADD DUP7 PUSH2 0xC87 JUMP JUMPDEST PUSH2 0xD08 PUSH1 0x80 DUP4 ADD DUP6 PUSH2 0xC87 JUMP JUMPDEST PUSH2 0xD15 PUSH1 0xA0 DUP4 ADD DUP5 PUSH2 0xCA2 JUMP JUMPDEST SWAP8 SWAP7 POP POP POP POP POP POP POP JUMP JUMPDEST PUSH1 0x0 DUP1 REVERT JUMPDEST PUSH2 0xD2E DUP2 PUSH2 0xB0F JUMP JUMPDEST DUP2 EQ PUSH2 0xD39 JUMPI PUSH1 0x0 DUP1 REVERT JUMPDEST POP JUMP JUMPDEST PUSH1 0x0 DUP2 CALLDATALOAD SWAP1 POP PUSH2 0xD4B DUP2 PUSH2 0xD25 JUMP JUMPDEST SWAP3 SWAP2 POP POP JUMP JUMPDEST PUSH1 0x0 PUSH1 0x20 DUP3 DUP5 SUB SLT ISZERO PUSH2 0xD67 JUMPI PUSH2 0xD66 PUSH2 0xD20 JUMP JUMPDEST JUMPDEST PUSH1 0x0 PUSH2 0xD75 DUP5 DUP3 DUP6 ADD PUSH2 0xD3C JUMP JUMPDEST SWAP2 POP POP SWAP3 SWAP2 POP POP JUMP JUMPDEST PUSH1 0x0 PUSH1 0x20 DUP3 ADD SWAP1 POP PUSH2 0xD93 PUSH1 0x0 DUP4 ADD DUP5 PUSH2 0xCA2 JUMP JUMPDEST SWAP3 SWAP2 POP POP JUMP JUMPDEST PUSH1 0x0 PUSH1 0x20 DUP3 ADD SWAP1 POP PUSH2 0xDAE PUSH1 0x0 DUP4 ADD DUP5 PUSH2 0xC87 JUMP JUMPDEST SWAP3 SWAP2 POP POP JUMP JUMPDEST PUSH2 0xDBD DUP2 PUSH2 0xA8F JUMP JUMPDEST DUP2 EQ PUSH2 0xDC8 JUMPI PUSH1 0x0 DUP1 REVERT JUMPDEST POP JUMP JUMPDEST PUSH1 0x0 DUP2 CALLDATALOAD SWAP1 POP PUSH2 0xDDA DUP2 PUSH2 0xDB4 JUMP JUMPDEST SWAP3 SWAP2 POP POP JUMP JUMPDEST PUSH1 0x0 DUP1 PUSH1 0x40 DUP4 DUP6 SUB SLT ISZERO PUSH2 0xDF7 JUMPI PUSH2 0xDF6 PUSH2 0xD20 JUMP JUMPDEST JUMPDEST PUSH1 0x0 PUSH2 0xE05 DUP6 DUP3 DUP7 ADD PUSH2 0xD3C JUMP JUMPDEST SWAP3 POP POP PUSH1 0x20 PUSH2 0xE16 DUP6 DUP3 DUP7 ADD PUSH2 0xDCB JUMP JUMPDEST SWAP2 POP POP SWAP3 POP SWAP3 SWAP1 POP JUMP JUMPDEST PUSH1 0x0 PUSH1 0x20 DUP3 DUP5 SUB SLT ISZERO PUSH2 0xE36 JUMPI PUSH2 0xE35 PUSH2 0xD20 JUMP JUMPDEST JUMPDEST PUSH1 0x0 PUSH2 0xE44 DUP5 DUP3 DUP6 ADD PUSH2 0xDCB JUMP JUMPDEST SWAP2 POP POP SWAP3 SWAP2 POP POP JUMP JUMPDEST PUSH32 0x4E487B7100000000000000000000000000000000000000000000000000000000 PUSH1 0x0 MSTORE PUSH1 0x22 PUSH1 0x4 MSTORE PUSH1 0x24 PUSH1 0x0 REVERT JUMPDEST PUSH1 0x0 PUSH1 0x2 DUP3 DIV SWAP1 POP PUSH1 0x1 DUP3 AND DUP1 PUSH2 0xE94 JUMPI PUSH1 0x7F DUP3 AND SWAP2 POP JUMPDEST PUSH1 0x20 DUP3 LT DUP2 SUB PUSH2 0xEA7 JUMPI PUSH2 0xEA6 PUSH2 0xE4D JUMP JUMPDEST JUMPDEST POP SWAP2 SWAP1 POP JUMP JUMPDEST PUSH32 0x4E487B7100000000000000000000000000000000000000000000000000000000 PUSH1 0x0 MSTORE PUSH1 0x11 PUSH1 0x4 MSTORE PUSH1 0x24 PUSH1 0x0 REVERT JUMPDEST PUSH1 0x0 PUSH2 0xEE7 DUP3 PUSH2 0xA8F JUMP JUMPDEST SWAP2 POP PUSH2 0xEF2 DUP4 PUSH2 0xA8F JUMP JUMPDEST SWAP3 POP DUP3 DUP3 ADD SWAP1 POP DUP1 DUP3 GT ISZERO PUSH2 0xF0A JUMPI PUSH2 0xF09 PUSH2 0xEAD JUMP JUMPDEST JUMPDEST SWAP3 SWAP2 POP POP JUMP JUMPDEST PUSH32 0x4E6F2068617320656D697469646F2074616E746F7320766F746F730000000000 PUSH1 0x0 DUP3 ADD MSTORE POP JUMP JUMPDEST PUSH1 0x0 PUSH2 0xF46 PUSH1 0x1B DUP4 PUSH2 0xBE0 JUMP JUMPDEST SWAP2 POP PUSH2 0xF51 DUP3 PUSH2 0xF10 JUMP JUMPDEST PUSH1 0x20 DUP3 ADD SWAP1 POP SWAP2 SWAP1 POP JUMP JUMPDEST PUSH1 0x0 PUSH1 0x20 DUP3 ADD SWAP1 POP DUP2 DUP2 SUB PUSH1 0x0 DUP4 ADD MSTORE PUSH2 0xF75 DUP2 PUSH2 0xF39 JUMP JUMPDEST SWAP1 POP SWAP2 SWAP1 POP JUMP JUMPDEST PUSH1 0x0 PUSH2 0xF87 DUP3 PUSH2 0xA8F JUMP JUMPDEST SWAP2 POP PUSH2 0xF92 DUP4 PUSH2 0xA8F JUMP JUMPDEST SWAP3 POP DUP3 DUP3 SUB SWAP1 POP DUP2 DUP2 GT ISZERO PUSH2 0xFAA JUMPI PUSH2 0xFA9 PUSH2 0xEAD JUMP JUMPDEST JUMPDEST SWAP3 SWAP2 POP POP JUMP JUMPDEST PUSH1 0x0 PUSH1 0x60 DUP3 ADD SWAP1 POP PUSH2 0xFC5 PUSH1 0x0 DUP4 ADD DUP7 PUSH2 0xA99 JUMP JUMPDEST PUSH2 0xFD2 PUSH1 0x20 DUP4 ADD DUP6 PUSH2 0xA99 JUMP JUMPDEST PUSH2 0xFDF PUSH1 0x40 DUP4 ADD DUP5 PUSH2 0xA99 JUMP JUMPDEST SWAP5 SWAP4 POP POP POP POP JUMP INVALID LOG2 PUSH5 0x6970667358 0x22 SLT KECCAK256 0xD1 PUSH19 0x296CB5118F4FF96F3B37636304C224FB655C4E 0xBA PUSH31 0x4CD10A7A940C1E146A64736F6C634300081200330000000000000000000000 "
		},
		"gasEstimates": {
			"creation": {
				"codeDepositCost": "825000",
				"executionCost": "infinite",
				"totalCost": "infinite"
			},
			"external": {
				"VotosTotales()": "2461",
				"acero(address)": "5604",
				"aprobar()": "24528",
				"executeProp(uint256)": "infinite",
				"getAprobada()": "2596",
				"getDescripcion()": "infinite",
				"getDireccion()": "2545",
				"getId()": "2526",
				"getPresupuesto()": "2526",
				"getPropietario()": "2566",
				"getTitulo()": "infinite",
				"getVotantes()": "infinite",
				"info()": "infinite",
				"numVotos(address)": "2864",
				"retirarVotos(address,uint256)": "infinite",
				"votar(address,uint256)": "infinite"
			}
		},
		"methodIdentifiers": {
			"VotosTotales()": "08905c10",
			"acero(address)": "4ea5e89b",
			"aprobar()": "85e6d007",
			"executeProp(uint256)": "d615c82e",
			"getAprobada()": "52935e76",
			"getDescripcion()": "f9a9ff9d",
			"getDireccion()": "60749724",
			"getId()": "5d1ca631",
			"getPresupuesto()": "882092a2",
			"getPropietario()": "c69dbb99",
			"getTitulo()": "30bc0f0c",
			"getVotantes()": "1f9dd70b",
			"info()": "370158ea",
			"numVotos(address)": "46f5f8ac",
			"retirarVotos(address,uint256)": "bab82be4",
			"votar(address,uint256)": "835c4329"
		}
	},
	"abi": [
		{
			"inputs": [
				{
					"internalType": "string",
					"name": "tit",
					"type": "string"
				},
				{
					"internalType": "string",
					"name": "descr",
					"type": "string"
				},
				{
					"internalType": "uint256",
					"name": "presup",
					"type": "uint256"
				},
				{
					"internalType": "address",
					"name": "dir",
					"type": "address"
				},
				{
					"internalType": "address",
					"name": "prop",
					"type": "address"
				},
				{
					"internalType": "uint256",
					"name": "i",
					"type": "uint256"
				}
			],
			"stateMutability": "nonpayable",
			"type": "constructor"
		},
		{
			"inputs": [],
			"name": "VotosTotales",
			"outputs": [
				{
					"internalType": "uint256",
					"name": "n",
					"type": "uint256"
				}
			],
			"stateMutability": "view",
			"type": "function"
		},
		{
			"inputs": [
				{
					"internalType": "address",
					"name": "a",
					"type": "address"
				}
			],
			"name": "acero",
			"outputs": [],
			"stateMutability": "nonpayable",
			"type": "function"
		},
		{
			"inputs": [],
			"name": "aprobar",
			"outputs": [],
			"stateMutability": "nonpayable",
			"type": "function"
		},
		{
			"inputs": [
				{
					"internalType": "uint256",
					"name": "numTokens",
					"type": "uint256"
				}
			],
			"name": "executeProp",
			"outputs": [],
			"stateMutability": "payable",
			"type": "function"
		},
		{
			"inputs": [],
			"name": "getAprobada",
			"outputs": [
				{
					"internalType": "bool",
					"name": "",
					"type": "bool"
				}
			],
			"stateMutability": "view",
			"type": "function"
		},
		{
			"inputs": [],
			"name": "getDescripcion",
			"outputs": [
				{
					"internalType": "string",
					"name": "",
					"type": "string"
				}
			],
			"stateMutability": "view",
			"type": "function"
		},
		{
			"inputs": [],
			"name": "getDireccion",
			"outputs": [
				{
					"internalType": "address",
					"name": "",
					"type": "address"
				}
			],
			"stateMutability": "view",
			"type": "function"
		},
		{
			"inputs": [],
			"name": "getId",
			"outputs": [
				{
					"internalType": "uint256",
					"name": "",
					"type": "uint256"
				}
			],
			"stateMutability": "view",
			"type": "function"
		},
		{
			"inputs": [],
			"name": "getPresupuesto",
			"outputs": [
				{
					"internalType": "uint256",
					"name": "",
					"type": "uint256"
				}
			],
			"stateMutability": "view",
			"type": "function"
		},
		{
			"inputs": [],
			"name": "getPropietario",
			"outputs": [
				{
					"internalType": "address",
					"name": "",
					"type": "address"
				}
			],
			"stateMutability": "view",
			"type": "function"
		},
		{
			"inputs": [],
			"name": "getTitulo",
			"outputs": [
				{
					"internalType": "string",
					"name": "",
					"type": "string"
				}
			],
			"stateMutability": "view",
			"type": "function"
		},
		{
			"inputs": [],
			"name": "getVotantes",
			"outputs": [
				{
					"internalType": "address[]",
					"name": "",
					"type": "address[]"
				}
			],
			"stateMutability": "view",
			"type": "function"
		},
		{
			"inputs": [],
			"name": "info",
			"outputs": [
				{
					"internalType": "string",
					"name": "",
					"type": "string"
				},
				{
					"internalType": "string",
					"name": "",
					"type": "string"
				},
				{
					"internalType": "uint256",
					"name": "",
					"type": "uint256"
				},
				{
					"internalType": "address",
					"name": "",
					"type": "address"
				},
				{
					"internalType": "address",
					"name": "",
					"type": "address"
				},
				{
					"internalType": "bool",
					"name": "",
					"type": "bool"
				}
			],
			"stateMutability": "view",
			"type": "function"
		},
		{
			"inputs": [
				{
					"internalType": "address",
					"name": "a",
					"type": "address"
				}
			],
			"name": "numVotos",
			"outputs": [
				{
					"internalType": "uint256",
					"name": "n",
					"type": "uint256"
				}
			],
			"stateMutability": "view",
			"type": "function"
		},
		{
			"inputs": [
				{
					"internalType": "address",
					"name": "a",
					"type": "address"
				},
				{
					"internalType": "uint256",
					"name": "nvotos",
					"type": "uint256"
				}
			],
			"name": "retirarVotos",
			"outputs": [],
			"stateMutability": "nonpayable",
			"type": "function"
		},
		{
			"inputs": [
				{
					"internalType": "address",
					"name": "a",
					"type": "address"
				},
				{
					"internalType": "uint256",
					"name": "nvotos",
					"type": "uint256"
				}
			],
			"name": "votar",
			"outputs": [],
			"stateMutability": "nonpayable",
			"type": "function"
		}
	]
}