{
	"contracts/Proyecto/Proposal.sol": {
		"PropuestaPrueba": {
			"abi": [
				{
					"anonymous": false,
					"inputs": [
						{
							"indexed": false,
							"internalType": "string",
							"name": "message",
							"type": "string"
						},
						{
							"indexed": false,
							"internalType": "uint256",
							"name": "id",
							"type": "uint256"
						},
						{
							"indexed": false,
							"internalType": "uint256",
							"name": "numVotes",
							"type": "uint256"
						},
						{
							"indexed": false,
							"internalType": "uint256",
							"name": "numTokens",
							"type": "uint256"
						},
						{
							"indexed": false,
							"internalType": "uint256",
							"name": "presupuesto",
							"type": "uint256"
						}
					],
					"name": "Print",
					"type": "event"
				},
				{
					"inputs": [
						{
							"internalType": "uint256",
							"name": "proposalId",
							"type": "uint256"
						},
						{
							"internalType": "uint256",
							"name": "numVotes",
							"type": "uint256"
						},
						{
							"internalType": "uint256",
							"name": "numTokens",
							"type": "uint256"
						}
					],
					"name": "executeProposal",
					"outputs": [],
					"stateMutability": "payable",
					"type": "function"
				}
			],
			"devdoc": {
				"kind": "dev",
				"methods": {},
				"version": 1
			},
			"evm": {
				"assembly": "    /* \"contracts/Proyecto/Proposal.sol\":2908:3243  contract PropuestaPrueba is IExecutableProposal{... */\n  mstore(0x40, 0x80)\n  callvalue\n  dup1\n  iszero\n  tag_1\n  jumpi\n  0x00\n  dup1\n  revert\ntag_1:\n  pop\n  dataSize(sub_0)\n  dup1\n  dataOffset(sub_0)\n  0x00\n  codecopy\n  0x00\n  return\nstop\n\nsub_0: assembly {\n        /* \"contracts/Proyecto/Proposal.sol\":2908:3243  contract PropuestaPrueba is IExecutableProposal{... */\n      mstore(0x40, 0x80)\n      jumpi(tag_1, lt(calldatasize, 0x04))\n      shr(0xe0, calldataload(0x00))\n      dup1\n      0x986cc311\n      eq\n      tag_2\n      jumpi\n    tag_1:\n      0x00\n      dup1\n      revert\n        /* \"contracts/Proyecto/Proposal.sol\":3054:3240  function executeProposal(uint proposalId, uint numVotes, uint numTokens) external payable{... */\n    tag_2:\n      tag_3\n      0x04\n      dup1\n      calldatasize\n      sub\n      dup2\n      add\n      swap1\n      tag_4\n      swap2\n      swap1\n      tag_5\n      jump\t// in\n    tag_4:\n      tag_6\n      jump\t// in\n    tag_3:\n      stop\n    tag_6:\n        /* \"contracts/Proyecto/Proposal.sol\":3159:3232  Print(\"Propuesta ejecutada \", proposalId, numVotes, numTokens, msg.value) */\n      0x335de212ca529be9bcff7d298159ff1f8e35947d0a1f0d59ad85884fc609f050\n        /* \"contracts/Proyecto/Proposal.sol\":3189:3199  proposalId */\n      dup4\n        /* \"contracts/Proyecto/Proposal.sol\":3201:3209  numVotes */\n      dup4\n        /* \"contracts/Proyecto/Proposal.sol\":3211:3220  numTokens */\n      dup4\n        /* \"contracts/Proyecto/Proposal.sol\":3222:3231  msg.value */\n      callvalue\n        /* \"contracts/Proyecto/Proposal.sol\":3159:3232  Print(\"Propuesta ejecutada \", proposalId, numVotes, numTokens, msg.value) */\n      mload(0x40)\n      tag_8\n      swap5\n      swap4\n      swap3\n      swap2\n      swap1\n      tag_9\n      jump\t// in\n    tag_8:\n      mload(0x40)\n      dup1\n      swap2\n      sub\n      swap1\n      log1\n        /* \"contracts/Proyecto/Proposal.sol\":3054:3240  function executeProposal(uint proposalId, uint numVotes, uint numTokens) external payable{... */\n      pop\n      pop\n      pop\n      jump\t// out\n        /* \"#utility.yul\":88:205   */\n    tag_11:\n        /* \"#utility.yul\":197:198   */\n      0x00\n        /* \"#utility.yul\":194:195   */\n      dup1\n        /* \"#utility.yul\":187:199   */\n      revert\n        /* \"#utility.yul\":334:411   */\n    tag_13:\n        /* \"#utility.yul\":371:378   */\n      0x00\n        /* \"#utility.yul\":400:405   */\n      dup2\n        /* \"#utility.yul\":389:405   */\n      swap1\n      pop\n        /* \"#utility.yul\":334:411   */\n      swap2\n      swap1\n      pop\n      jump\t// out\n        /* \"#utility.yul\":417:539   */\n    tag_14:\n        /* \"#utility.yul\":490:514   */\n      tag_26\n        /* \"#utility.yul\":508:513   */\n      dup2\n        /* \"#utility.yul\":490:514   */\n      tag_13\n      jump\t// in\n    tag_26:\n        /* \"#utility.yul\":483:488   */\n      dup2\n        /* \"#utility.yul\":480:515   */\n      eq\n        /* \"#utility.yul\":470:533   */\n      tag_27\n      jumpi\n        /* \"#utility.yul\":529:530   */\n      0x00\n        /* \"#utility.yul\":526:527   */\n      dup1\n        /* \"#utility.yul\":519:531   */\n      revert\n        /* \"#utility.yul\":470:533   */\n    tag_27:\n        /* \"#utility.yul\":417:539   */\n      pop\n      jump\t// out\n        /* \"#utility.yul\":545:684   */\n    tag_15:\n        /* \"#utility.yul\":591:596   */\n      0x00\n        /* \"#utility.yul\":629:635   */\n      dup2\n        /* \"#utility.yul\":616:636   */\n      calldataload\n        /* \"#utility.yul\":607:636   */\n      swap1\n      pop\n        /* \"#utility.yul\":645:678   */\n      tag_29\n        /* \"#utility.yul\":672:677   */\n      dup2\n        /* \"#utility.yul\":645:678   */\n      tag_14\n      jump\t// in\n    tag_29:\n        /* \"#utility.yul\":545:684   */\n      swap3\n      swap2\n      pop\n      pop\n      jump\t// out\n        /* \"#utility.yul\":690:1309   */\n    tag_5:\n        /* \"#utility.yul\":767:773   */\n      0x00\n        /* \"#utility.yul\":775:781   */\n      dup1\n        /* \"#utility.yul\":783:789   */\n      0x00\n        /* \"#utility.yul\":832:834   */\n      0x60\n        /* \"#utility.yul\":820:829   */\n      dup5\n        /* \"#utility.yul\":811:818   */\n      dup7\n        /* \"#utility.yul\":807:830   */\n      sub\n        /* \"#utility.yul\":803:835   */\n      slt\n        /* \"#utility.yul\":800:919   */\n      iszero\n      tag_31\n      jumpi\n        /* \"#utility.yul\":838:917   */\n      tag_32\n      tag_11\n      jump\t// in\n    tag_32:\n        /* \"#utility.yul\":800:919   */\n    tag_31:\n        /* \"#utility.yul\":958:959   */\n      0x00\n        /* \"#utility.yul\":983:1036   */\n      tag_33\n        /* \"#utility.yul\":1028:1035   */\n      dup7\n        /* \"#utility.yul\":1019:1025   */\n      dup3\n        /* \"#utility.yul\":1008:1017   */\n      dup8\n        /* \"#utility.yul\":1004:1026   */\n      add\n        /* \"#utility.yul\":983:1036   */\n      tag_15\n      jump\t// in\n    tag_33:\n        /* \"#utility.yul\":973:1036   */\n      swap4\n      pop\n        /* \"#utility.yul\":929:1046   */\n      pop\n        /* \"#utility.yul\":1085:1087   */\n      0x20\n        /* \"#utility.yul\":1111:1164   */\n      tag_34\n        /* \"#utility.yul\":1156:1163   */\n      dup7\n        /* \"#utility.yul\":1147:1153   */\n      dup3\n        /* \"#utility.yul\":1136:1145   */\n      dup8\n        /* \"#utility.yul\":1132:1154   */\n      add\n        /* \"#utility.yul\":1111:1164   */\n      tag_15\n      jump\t// in\n    tag_34:\n        /* \"#utility.yul\":1101:1164   */\n      swap3\n      pop\n        /* \"#utility.yul\":1056:1174   */\n      pop\n        /* \"#utility.yul\":1213:1215   */\n      0x40\n        /* \"#utility.yul\":1239:1292   */\n      tag_35\n        /* \"#utility.yul\":1284:1291   */\n      dup7\n        /* \"#utility.yul\":1275:1281   */\n      dup3\n        /* \"#utility.yul\":1264:1273   */\n      dup8\n        /* \"#utility.yul\":1260:1282   */\n      add\n        /* \"#utility.yul\":1239:1292   */\n      tag_15\n      jump\t// in\n    tag_35:\n        /* \"#utility.yul\":1229:1292   */\n      swap2\n      pop\n        /* \"#utility.yul\":1184:1302   */\n      pop\n        /* \"#utility.yul\":690:1309   */\n      swap3\n      pop\n      swap3\n      pop\n      swap3\n      jump\t// out\n        /* \"#utility.yul\":1315:1484   */\n    tag_16:\n        /* \"#utility.yul\":1399:1410   */\n      0x00\n        /* \"#utility.yul\":1433:1439   */\n      dup3\n        /* \"#utility.yul\":1428:1431   */\n      dup3\n        /* \"#utility.yul\":1421:1440   */\n      mstore\n        /* \"#utility.yul\":1473:1477   */\n      0x20\n        /* \"#utility.yul\":1468:1471   */\n      dup3\n        /* \"#utility.yul\":1464:1478   */\n      add\n        /* \"#utility.yul\":1449:1478   */\n      swap1\n      pop\n        /* \"#utility.yul\":1315:1484   */\n      swap3\n      swap2\n      pop\n      pop\n      jump\t// out\n        /* \"#utility.yul\":1490:1660   */\n    tag_17:\n        /* \"#utility.yul\":1630:1652   */\n      0x50726f70756573746120656a6563757461646120000000000000000000000000\n        /* \"#utility.yul\":1626:1627   */\n      0x00\n        /* \"#utility.yul\":1618:1624   */\n      dup3\n        /* \"#utility.yul\":1614:1628   */\n      add\n        /* \"#utility.yul\":1607:1653   */\n      mstore\n        /* \"#utility.yul\":1490:1660   */\n      pop\n      jump\t// out\n        /* \"#utility.yul\":1666:2032   */\n    tag_18:\n        /* \"#utility.yul\":1808:1811   */\n      0x00\n        /* \"#utility.yul\":1829:1896   */\n      tag_39\n        /* \"#utility.yul\":1893:1895   */\n      0x14\n        /* \"#utility.yul\":1888:1891   */\n      dup4\n        /* \"#utility.yul\":1829:1896   */\n      tag_16\n      jump\t// in\n    tag_39:\n        /* \"#utility.yul\":1822:1896   */\n      swap2\n      pop\n        /* \"#utility.yul\":1905:1998   */\n      tag_40\n        /* \"#utility.yul\":1994:1997   */\n      dup3\n        /* \"#utility.yul\":1905:1998   */\n      tag_17\n      jump\t// in\n    tag_40:\n        /* \"#utility.yul\":2023:2025   */\n      0x20\n        /* \"#utility.yul\":2018:2021   */\n      dup3\n        /* \"#utility.yul\":2014:2026   */\n      add\n        /* \"#utility.yul\":2007:2026   */\n      swap1\n      pop\n        /* \"#utility.yul\":1666:2032   */\n      swap2\n      swap1\n      pop\n      jump\t// out\n        /* \"#utility.yul\":2038:2156   */\n    tag_19:\n        /* \"#utility.yul\":2125:2149   */\n      tag_42\n        /* \"#utility.yul\":2143:2148   */\n      dup2\n        /* \"#utility.yul\":2125:2149   */\n      tag_13\n      jump\t// in\n    tag_42:\n        /* \"#utility.yul\":2120:2123   */\n      dup3\n        /* \"#utility.yul\":2113:2150   */\n      mstore\n        /* \"#utility.yul\":2038:2156   */\n      pop\n      pop\n      jump\t// out\n        /* \"#utility.yul\":2162:3023   */\n    tag_9:\n        /* \"#utility.yul\":2440:2444   */\n      0x00\n        /* \"#utility.yul\":2478:2481   */\n      0xa0\n        /* \"#utility.yul\":2467:2476   */\n      dup3\n        /* \"#utility.yul\":2463:2482   */\n      add\n        /* \"#utility.yul\":2455:2482   */\n      swap1\n      pop\n        /* \"#utility.yul\":2528:2537   */\n      dup2\n        /* \"#utility.yul\":2522:2526   */\n      dup2\n        /* \"#utility.yul\":2518:2538   */\n      sub\n        /* \"#utility.yul\":2514:2515   */\n      0x00\n        /* \"#utility.yul\":2503:2512   */\n      dup4\n        /* \"#utility.yul\":2499:2516   */\n      add\n        /* \"#utility.yul\":2492:2539   */\n      mstore\n        /* \"#utility.yul\":2556:2687   */\n      tag_44\n        /* \"#utility.yul\":2682:2686   */\n      dup2\n        /* \"#utility.yul\":2556:2687   */\n      tag_18\n      jump\t// in\n    tag_44:\n        /* \"#utility.yul\":2548:2687   */\n      swap1\n      pop\n        /* \"#utility.yul\":2697:2769   */\n      tag_45\n        /* \"#utility.yul\":2765:2767   */\n      0x20\n        /* \"#utility.yul\":2754:2763   */\n      dup4\n        /* \"#utility.yul\":2750:2768   */\n      add\n        /* \"#utility.yul\":2741:2747   */\n      dup8\n        /* \"#utility.yul\":2697:2769   */\n      tag_19\n      jump\t// in\n    tag_45:\n        /* \"#utility.yul\":2779:2851   */\n      tag_46\n        /* \"#utility.yul\":2847:2849   */\n      0x40\n        /* \"#utility.yul\":2836:2845   */\n      dup4\n        /* \"#utility.yul\":2832:2850   */\n      add\n        /* \"#utility.yul\":2823:2829   */\n      dup7\n        /* \"#utility.yul\":2779:2851   */\n      tag_19\n      jump\t// in\n    tag_46:\n        /* \"#utility.yul\":2861:2933   */\n      tag_47\n        /* \"#utility.yul\":2929:2931   */\n      0x60\n        /* \"#utility.yul\":2918:2927   */\n      dup4\n        /* \"#utility.yul\":2914:2932   */\n      add\n        /* \"#utility.yul\":2905:2911   */\n      dup6\n        /* \"#utility.yul\":2861:2933   */\n      tag_19\n      jump\t// in\n    tag_47:\n        /* \"#utility.yul\":2943:3016   */\n      tag_48\n        /* \"#utility.yul\":3011:3014   */\n      0x80\n        /* \"#utility.yul\":3000:3009   */\n      dup4\n        /* \"#utility.yul\":2996:3015   */\n      add\n        /* \"#utility.yul\":2987:2993   */\n      dup5\n        /* \"#utility.yul\":2943:3016   */\n      tag_19\n      jump\t// in\n    tag_48:\n        /* \"#utility.yul\":2162:3023   */\n      swap6\n      swap5\n      pop\n      pop\n      pop\n      pop\n      pop\n      jump\t// out\n\n    auxdata: 0xa2646970667358221220ab116b67acfe6769f4021d11294d92d74ff2bfd39777853237b161256a4a890f64736f6c63430008120033\n}\n",
				"bytecode": {
					"linkReferences": {},
					"object": "608060405234801561001057600080fd5b50610209806100206000396000f3fe60806040526004361061001e5760003560e01c8063986cc31114610023575b600080fd5b61003d600480360381019061003891906100bc565b61003f565b005b7f335de212ca529be9bcff7d298159ff1f8e35947d0a1f0d59ad85884fc609f05083838334604051610074949392919061017b565b60405180910390a1505050565b600080fd5b6000819050919050565b61009981610086565b81146100a457600080fd5b50565b6000813590506100b681610090565b92915050565b6000806000606084860312156100d5576100d4610081565b5b60006100e3868287016100a7565b93505060206100f4868287016100a7565b9250506040610105868287016100a7565b9150509250925092565b600082825260208201905092915050565b7f50726f70756573746120656a6563757461646120000000000000000000000000600082015250565b600061015660148361010f565b915061016182610120565b602082019050919050565b61017581610086565b82525050565b600060a082019050818103600083015261019481610149565b90506101a3602083018761016c565b6101b0604083018661016c565b6101bd606083018561016c565b6101ca608083018461016c565b9594505050505056fea2646970667358221220ab116b67acfe6769f4021d11294d92d74ff2bfd39777853237b161256a4a890f64736f6c63430008120033",
					"opcodes": "PUSH1 0x80 PUSH1 0x40 MSTORE CALLVALUE DUP1 ISZERO PUSH2 0x10 JUMPI PUSH1 0x0 DUP1 REVERT JUMPDEST POP PUSH2 0x209 DUP1 PUSH2 0x20 PUSH1 0x0 CODECOPY PUSH1 0x0 RETURN INVALID PUSH1 0x80 PUSH1 0x40 MSTORE PUSH1 0x4 CALLDATASIZE LT PUSH2 0x1E JUMPI PUSH1 0x0 CALLDATALOAD PUSH1 0xE0 SHR DUP1 PUSH4 0x986CC311 EQ PUSH2 0x23 JUMPI JUMPDEST PUSH1 0x0 DUP1 REVERT JUMPDEST PUSH2 0x3D PUSH1 0x4 DUP1 CALLDATASIZE SUB DUP2 ADD SWAP1 PUSH2 0x38 SWAP2 SWAP1 PUSH2 0xBC JUMP JUMPDEST PUSH2 0x3F JUMP JUMPDEST STOP JUMPDEST PUSH32 0x335DE212CA529BE9BCFF7D298159FF1F8E35947D0A1F0D59AD85884FC609F050 DUP4 DUP4 DUP4 CALLVALUE PUSH1 0x40 MLOAD PUSH2 0x74 SWAP5 SWAP4 SWAP3 SWAP2 SWAP1 PUSH2 0x17B JUMP JUMPDEST PUSH1 0x40 MLOAD DUP1 SWAP2 SUB SWAP1 LOG1 POP POP POP JUMP JUMPDEST PUSH1 0x0 DUP1 REVERT JUMPDEST PUSH1 0x0 DUP2 SWAP1 POP SWAP2 SWAP1 POP JUMP JUMPDEST PUSH2 0x99 DUP2 PUSH2 0x86 JUMP JUMPDEST DUP2 EQ PUSH2 0xA4 JUMPI PUSH1 0x0 DUP1 REVERT JUMPDEST POP JUMP JUMPDEST PUSH1 0x0 DUP2 CALLDATALOAD SWAP1 POP PUSH2 0xB6 DUP2 PUSH2 0x90 JUMP JUMPDEST SWAP3 SWAP2 POP POP JUMP JUMPDEST PUSH1 0x0 DUP1 PUSH1 0x0 PUSH1 0x60 DUP5 DUP7 SUB SLT ISZERO PUSH2 0xD5 JUMPI PUSH2 0xD4 PUSH2 0x81 JUMP JUMPDEST JUMPDEST PUSH1 0x0 PUSH2 0xE3 DUP7 DUP3 DUP8 ADD PUSH2 0xA7 JUMP JUMPDEST SWAP4 POP POP PUSH1 0x20 PUSH2 0xF4 DUP7 DUP3 DUP8 ADD PUSH2 0xA7 JUMP JUMPDEST SWAP3 POP POP PUSH1 0x40 PUSH2 0x105 DUP7 DUP3 DUP8 ADD PUSH2 0xA7 JUMP JUMPDEST SWAP2 POP POP SWAP3 POP SWAP3 POP SWAP3 JUMP JUMPDEST PUSH1 0x0 DUP3 DUP3 MSTORE PUSH1 0x20 DUP3 ADD SWAP1 POP SWAP3 SWAP2 POP POP JUMP JUMPDEST PUSH32 0x50726F70756573746120656A6563757461646120000000000000000000000000 PUSH1 0x0 DUP3 ADD MSTORE POP JUMP JUMPDEST PUSH1 0x0 PUSH2 0x156 PUSH1 0x14 DUP4 PUSH2 0x10F JUMP JUMPDEST SWAP2 POP PUSH2 0x161 DUP3 PUSH2 0x120 JUMP JUMPDEST PUSH1 0x20 DUP3 ADD SWAP1 POP SWAP2 SWAP1 POP JUMP JUMPDEST PUSH2 0x175 DUP2 PUSH2 0x86 JUMP JUMPDEST DUP3 MSTORE POP POP JUMP JUMPDEST PUSH1 0x0 PUSH1 0xA0 DUP3 ADD SWAP1 POP DUP2 DUP2 SUB PUSH1 0x0 DUP4 ADD MSTORE PUSH2 0x194 DUP2 PUSH2 0x149 JUMP JUMPDEST SWAP1 POP PUSH2 0x1A3 PUSH1 0x20 DUP4 ADD DUP8 PUSH2 0x16C JUMP JUMPDEST PUSH2 0x1B0 PUSH1 0x40 DUP4 ADD DUP7 PUSH2 0x16C JUMP JUMPDEST PUSH2 0x1BD PUSH1 0x60 DUP4 ADD DUP6 PUSH2 0x16C JUMP JUMPDEST PUSH2 0x1CA PUSH1 0x80 DUP4 ADD DUP5 PUSH2 0x16C JUMP JUMPDEST SWAP6 SWAP5 POP POP POP POP POP JUMP INVALID LOG2 PUSH5 0x6970667358 0x22 SLT KECCAK256 0xAB GT PUSH12 0x67ACFE6769F4021D11294D92 0xD7 0x4F CALLCODE 0xBF 0xD3 SWAP8 PUSH24 0x853237B161256A4A890F64736F6C63430008120033000000 "
				},
				"gasEstimates": {
					"creation": {
						"codeDepositCost": "104200",
						"executionCost": "153",
						"totalCost": "104353"
					},
					"external": {
						"executeProposal(uint256,uint256,uint256)": "infinite"
					}
				},
				"methodIdentifiers": {
					"executeProposal(uint256,uint256,uint256)": "986cc311"
				}
			},
			"storageLayout": {
				"storage": [],
				"types": null
			},
			"userdoc": {
				"kind": "user",
				"methods": {},
				"version": 1
			}
		}
	}
}